:020000040800F2
:1000000000060020E1020008E3020008E302000805
:10001000E3020008E3020008E3020008E30200082C
:10002000E3020008E3020008E30200084D7600083E
:10003000E3020008E3020008E3020008E30200080C
:10004000E3020008E3020008E3020008E3020008FC
:10005000E3020008E3020008358500086185000816
:100060008D850008B9850008E5850008C9450008A8
:10007000F14500081D46000849460008754600087D
:100080009D460008C9460008E3020008E302000894
:10009000E3020008E3020008E302000811860008FA
:1000A000E3020008E3020008E3020008E30200089C
:1000B000E3020008E3020008E3020008E30200088C
:1000C000E3020008E3020008E3020008E30200087C
:1000D000E3020008E3020008FD860008118700081B
:1000E00075860008E3020008E3020008E302000846
:1000F000E3020008E3020008E3020008F5460008F6
:10010000E3020008E986000839870008E3020008D6
:10011000E3020008E3020008E3020008E30200082B
:10012000214700084947000875470008A147000813
:10013000CD470008E3020008E3020008E3020008DC
:10014000E3020008E3020008E3020008E3020008FB
:10015000F5470008214800084D480008E302000860
:10016000E3020008E3020008E3020008E3020008DB
:10017000E302000825820008E3020008E302000809
:10018000E3020008E302000825870008E3020008F4
:10019000E3020008E3020008E3020008E3020008AB
:1001A000E3020008E3020008E3020008E30200089B
:1001B000E3020008E3020008E3020008E30200088B
:1001C000E3020008E3020008E3020008E30200087B
:1001D000E302000811820008E3020008E3020008BD
:1001E000E3020008E3020008E3020008E30200085B
:1001F000E3020008E3020008E3020008E30200084B
:10020000E3020008E3020008E3020008E30200083A
:10021000E3020008E3020008E3020008E30200082A
:10022000E3020008E3020008E3020008E30200081A
:10023000E3020008E3020008E3020008E30200080A
:10024000E3020008E3020008E3020008E3020008FA
:10025000E3020008E3020008E3020008E3020008EA
:10026000E3020008E3020008E3020008E3020008DA
:10027000E3020008E3020008E3020008E3020008CA
:10028000E3020008E3020008E3020008E3020008BA
:10029000E3020008E3020008E3020008E3020008AA
:1002A000E3020008E3020008E3020008E30200089A
:1002B000E3020008E3020008E3020008E30200088A
:1002C000E3020008E3020008E3020008E30200087A
:1002D000E3020008E3020008E3020008E30200086A
:1002E00002E000F000F8FEE772B6374880F30888B5
:1002F000364880F3098836483649086040F20000E5
:10030000CCF200004EF63471CEF200010860BFF36B
:100310004F8FBFF36F8F40F20000C0F2F0004EF637
:100320008851CEF200010860BFF34F8FBFF36F8F8B
:100330004FF00000E1EE100A4EF63C71CEF20001E3
:100340000860062080F31488BFF36F8F07F0E0F990
:1003500006F06AFB4FF055301F491B4A91423CBFE3
:1003600041F8040BFAE71D49184A91423CBF41F895
:10037000040BFAE71A491B4A1B4B9A423EBF51F83D
:10038000040B42F8040BF8E700201849184A914280
:100390003CBF41F8040BFAE707F0F8F906F0C6FB9A
:1003A000144C154DAC4203DA54F8041B8847F9E7A6
:1003B00000F0C4F9114C124DAC4203DA54F8041B9E
:1003C0008847F9E707F0E0B9000600200022002086
:1003D0000000000808ED00E00000002000060020FA
:1003E000A09C000800220020D8220020D822002053
:1003F0009C670020E0020008E0020008E00200081C
:10040000E00200082DE9F04F2DED108AC1F80CD064
:10041000D0F80CD0BDEC108ABDE8F08F002383F338
:1004200011882846A047002006F0E0F8FEE706F015
:1004300039F800DFFEE7000053B94AB9002908BFC8
:1004400000281CBF4FF0FF314FF0FF3000F074B9AF
:10045000ADF1080C6DE904CE00F006F8DDF804E01B
:10046000DDE9022304B070472DE9F047089D0446FA
:100470008E46002B4DD18A42944669D9B2FA82F257
:1004800052B101FA02F3C2F1200120FA01F10CFA93
:1004900002FC41EA030E94404FEA1C48210CBEFBCB
:1004A000F8F61FFA8CF708FB16E341EA034306FB54
:1004B00007F199420AD91CEB030306F1FF3080F0E3
:1004C0001F81994240F21C81023E63445B1AA4B230
:1004D000B3FBF8F008FB103344EA034400FB07F7D2
:1004E000A7420AD91CEB040400F1FF3380F00A8113
:1004F000A74240F207816444023840EA0640E41B08
:1005000000261DB1D4400023C5E900433146BDE8B3
:10051000F0878B4209D9002D00F0EF800026C5E955
:10052000000130463146BDE8F087B3FA83F6002E6D
:100530004AD18B4202D3824200F2F980841A61EBE5
:10054000030301209E46002DE0D0C5E9004EDDE703
:1005500002B9FFDEB2FA82F2002A40F09280A1EBEB
:100560000C014FEA1C471FFA8CFE0126200CB1FB40
:10057000F7F307FB131140EA01410EFB03F0884239
:1005800008D91CEB010103F1FF3802D2884200F2C6
:10059000CB804346091AA4B2B1FBF7F007FB101158
:1005A00044EA01440EFB00FEA64508D91CEB0404F6
:1005B00000F1FF3102D2A64500F2BB800846A4EB51
:1005C0000E0440EA03409CE7C6F12007B34022FA3C
:1005D00007FC4CEA030C20FA07F401FA06F31C436B
:1005E000F9404FEA1C4900FA06F3B1FBF9F8200C78
:1005F0001FFA8CFE09FB181140EA014108FB0EF0BE
:10060000884202FA06F20BD91CEB010108F1FF3A0D
:1006100080F08880884240F28580A8F10208614419
:10062000091AA4B2B1FBF9F009FB101144EA014127
:1006300000FB0EFE8E4508D91CEB010100F1FF34D2
:100640006CD28E456AD90238614440EA0840A0FB6A
:100650000294A1EB0E01A142C846A64656D353D040
:100660005DB1B3EB080261EB0E0101FA07F722FA64
:1006700006F3F1401F43C5E9007100263146BDE88D
:10068000F087C2F12003D8400CFA02FC21FA03F3F0
:10069000914001434FEA1C471FFA8CFEB3FBF7F071
:1006A00007FB10360B0C43EA064300FB0EF69E4296
:1006B00004FA02F408D91CEB030300F1FF382FD22F
:1006C0009E422DD9023863449B1B89B2B3FBF7F6D7
:1006D00007FB163341EA034106FB0EF38B4208D9B0
:1006E0001CEB010106F1FF3816D28B4214D9023EF1
:1006F0006144C91A46EA004638E72E46284605E70F
:100700000646E3E61846F8E64B45A9D2B9EB0208DF
:1007100064EB0C0E0138A3E74646EAE7204694E76F
:100720004046D1E7D0467BE7023B614432E73046A2
:1007300009E76444023842E7704700BF38B501F06A
:10074000F3F901F0A3FB06F07BFE054606F074FF0B
:100750000446D0B90F4B9D4219D001339D4241F25E
:10076000883504BF01240025002006F073FE0CB17B
:1007700000F078F801F02AFB00F01AFD08B100F053
:1007800071F8284600F010F9F9E70025ECE7054676
:10079000EAE700BF010007B008B501F091F9A0F148
:1007A00020035842584108BD07B541F21203022107
:1007B00001A8ADF8043001F0A1F903B05DF804FB25
:1007C00038B5302383F31188174803680BB105F05F
:1007D000F1FF0023154A4FF47A71134805F0E0FF4A
:1007E000002383F31188124C236813B12368013B63
:1007F0002360636813B16368013B63600D4D2B7820
:1008000033B963687BB9022001F04AFA322363608E
:100810002B78032B07D163682BB9022001F040FA33
:100820004FF47A73636038BDD8220020C1070008F6
:10083000F8230020F0220020084B187003280CD861
:10084000DFE800F008050208022001F01FBA0220CC
:1008500001F012BA024B00225A607047F0220020C9
:10086000F8230020F8B5494B494A1C461968013164
:1008700000F08A8004339342F8D16268454B9A4273
:1008800040F28280444B9B6803F1006303F5003320
:100890009A4279D2002001F061F90220FFF7CCFFE3
:1008A0003E4B00219A6C99641A6F19671A6FDA6CC3
:1008B000D9645A6F59675A6F1A6D19659A6F99679B
:1008C0009B6F374BD3F8802042F00062C3F8802042
:1008D000D3F8802022F00062C3F88020D3F8802073
:1008E000D3F8802042F00072C3F88020D3F8802033
:1008F00022F00072C3F88020D3F8803072B64FF037
:10090000E023C3F8084DD4E90004BFF34F8FBFF3D1
:100910006F8F244AC2F88410BFF34F8F536923F4BA
:1009200080335361BFF34F8FD2F8803043F6E076C7
:10093000C3F3C905C3F34E335B0103EA060C294632
:100940004CEA81770139C2F87472F9D2203B13F175
:10095000200FF2D1BFF34F8FBFF36F8FBFF34F8FD5
:10096000BFF36F8F536923F4003353610023C2F840
:100970005032BFF34F8FBFF36F8F302383F3118853
:10098000854680F308882047F8BD00BF00000208B4
:1009900020000208FFFF0108002200200045025845
:1009A0000044025800ED00E02DE9F04F93B0B44B45
:1009B0002022FF2100900AA89D6801F0B1F9B14AF8
:1009C0001378A3B90121B04811700360302383F379
:1009D000118803680BB105F0EDFE0023AB4A4FF41C
:1009E0007A71A94805F0DCFE002383F31188009B8F
:1009F00013B1A74B009A1A60A64A1378032B03D0B1
:100A000000231370A24A53604FF0000A009CD346A3
:100A10005646D146012001F039F924B19C4B1B68A0
:100A2000002B00F02682002001F04AF80390039B7F
:100A3000002BF2DB012001F01FF9039B213B1F2B50
:100A4000E8D801A252F823F0C90A0008F10A000808
:100A5000850B0008150A0008150A0008150A000889
:100A6000170C0008E70D0008010D0008630D0008D1
:100A70008B0D0008B10D0008150A0008C30D000811
:100A8000150A0008350E0008690B0008150A000851
:100A9000790E0008D50A0008690B0008150A00083D
:100AA000630D0008150A0008150A0008150A000859
:100AB000150A0008150A0008150A0008150A00089A
:100AC000150A0008850B00080220FFF765FE0028C4
:100AD00040F0F981009B022105A8BAF1000F08BF80
:100AE0001C4641F21233ADF8143001F007F891E7DB
:100AF0004FF47A7000F0E4FF071EEBDB0220FFF7F3
:100B00004BFE0028E6D0013F052F00F2DE81DFE832
:100B100007F0030A0D1013360523042105A80593D9
:100B200000F0ECFF17E004215548F9E704215A488A
:100B3000F6E704215948F3E74FF01C08404608F156
:100B4000040801F00DF80421059005A800F0D6FF77
:100B5000B8F12C0FF2D101204FF0000900FA07F78D
:100B600047EA0B0B5FFA8BFB01F026F926B10BF07D
:100B70000B030B2B08BF0024FFF716FE4AE70421E6
:100B80004748CDE7002EA5D00BF00B030B2BA1D1CE
:100B90000220FFF701FE074600289BD00120002617
:100BA00000F0DCFF0220FFF747FE1FFA86F8404600
:100BB00000F0E4FF0446B0B1039940460136A1F1CC
:100BC00040025142514100F0E9FF0028EDD1BA4600
:100BD000044641F21213022105A83E46ADF8143036
:100BE00000F08CFF16E725460120FFF725FE244B79
:100BF0009B68AB4207D9284600F0B2FF013040F0B5
:100C000067810435F3E70025224BBA463E461D7046
:100C10001F4B5D60A8E7002E3FF45CAF0BF00B03A9
:100C20000B2B7FF457AF0220FFF706FE322000F0B7
:100C300047FFB0F10008FFF64DAF18F003077FF44F
:100C400049AF0F4A08EB0503926893423FF642AF63
:100C5000B8F5807F3FF73EAF124BB845019323DDD7
:100C60004FF47A7000F02CFF0390039A002AFFF6ED
:100C700031AF039A0137019B03F8012BEDE700BF69
:100C800000220020F4230020D8220020C107000801
:100C9000F8230020F0220020042200200822002057
:100CA0000C220020F4220020C820FFF775FD074623
:100CB00000283FF40FAF1F2D11D8C5F120020AAB59
:100CC00025F0030084494245184428BF424601925A
:100CD00001F000F8019AFF217F4801F021F84FEA66
:100CE000A803C8F387027C492846019301F020F845
:100CF000064600283FF46DAF019B05EB830533E703
:100D00000220FFF749FD00283FF4E4AE00F064FF45
:100D100000283FF4DFAE0027B846704B9B68BB420B
:100D200018D91F2F11D80A9B01330ED027F00303C7
:100D300012AA134453F8203C05934046042205A907
:100D4000043701F0F9F88046E7E7384600F008FF7D
:100D50000590F2E7CDF81480042105A800F0CEFE3E
:100D600002E70023642104A8049300F0BDFE0028DC
:100D70007FF4B0AE0220FFF70FFD00283FF4AAAECB
:100D8000049800F01FFF0590E6E70023642104A803
:100D9000049300F0A9FE00287FF49CAE0220FFF728
:100DA000FBFC00283FF496AE049800F00DFFEAE744
:100DB0000220FFF7F1FC00283FF48CAE00F01CFF8E
:100DC000E1E70220FFF7E8FC00283FF483AE05A925
:100DD000142000F017FF07460421049004A800F037
:100DE0008DFE3946B9E7322000F06AFE071EFFF695
:100DF00071AEBB077FF46EAE384A07EB0903926809
:100E000093423FF667AE0220FFF7C6FC00283FF48E
:100E100061AE27F003074F44B9453FF4A5AE4846FD
:100E200009F1040900F09CFE0421059005A800F0DA
:100E300065FEF1E74FF47A70FFF7AEFC00283FF44F
:100E400049AE00F0C9FE002844D00A9B01330BD004
:100E500008220AA9002000F06BFF00283AD02022C7
:100E6000FF210AA800F05CFFFFF79EFC1C4805F07C
:100E7000C3FB13B0BDE8F08F002E3FF42BAE0BF098
:100E80000B030B2B7FF426AE0023642105A80593EA
:100E900000F02AFE074600287FF41CAE0220FFF770
:100EA0007BFC804600283FF415AEFFF77DFC41F245
:100EB000883005F0A1FB059800F0C6FF46463C4689
:100EC00000F07AFFA6E506464EE64FF0000901E67F
:100ED000BA467EE637467CE6F42200200022002057
:100EE000A0860100704700007047000070470000B6
:100EF0002DE9F04100F58037044616463B7C5BB98E
:100F0000C0681030204400F0E5FEE5683544B5F5D2
:100F1000004FE56002D816B1BDE8F081DEB905F0FA
:100F20007F0605F110000021C6F180062044F6B2CC
:100F300032462E4400F0F4FEA06804F11008324658
:100F400000F10060414600F5003006F027F830B9A6
:100F500001233B74E0E74FF400463546ECE7A26816
:100F600005F11001404632442144A260E268521B60
:100F7000E26000F0AFFE0220BDE8F04100F090BE5C
:100F8000183000F0E9BC000010B5044608F0A4F8E1
:100F9000204610BD10B5044608F09EF8204610BD4E
:100FA000C3B280B2A3F14102052A02D8373800B299
:100FB0007047613B052B94BF57383038F7E7000086
:100FC000F8B504461546084603220C4900F08CFE8D
:100FD000014688B908346F1C15F91100FFF7E0FFCE
:100FE000064617F911000131FFF7DAFF102940EA30
:100FF000061004F8010BEFD1F8BD00BF50920008B5
:101000002DE9F04FADF53F7D0746416801222AA842
:1010100002F086FE002840F0878006468246814620
:101020001125DFF80C81DFF80CB101AB4FF48052D1
:1010300041462AA802F0D4FF002875D1019AB2F5E2
:10104000805F71D8002A65D00446019A9442ECD2A0
:10105000282D0FD008DC132D2DD01E2D39D0112DA9
:1010600013D00134A4B2F0E7322D2DD0372D2FD07C
:101070002D2DF6D13B68121B08EB040138461B6985
:101080002D259847BDF80440EBE7121B022A09D929
:10109000594608EB040000F027FE18B90234282551
:1010A000A4B2DEE718F804303A2B3DD00A2B1CBF5F
:1010B000A1461325D5E718F804300A2B34D03A2B73
:1010C00004BFA2463225CCE718F80430202BC8D044
:1010D000264618F804300A2B1AD1AAEB090208EBAD
:1010E000090102A811254F2A28BF4F2208F09CF8B9
:1010F000A21B08EB060116A84F2A28BF4F2208F0B2
:1011000093F83B6816AA02A9DB6838469847A8E717
:101110001E25A6E73B68384604491B69984701200D
:101120000DF53F7DBDE8F08F0020F9E752930008F0
:10113000002400205492000800F1180110B5044664
:1011400086B00846019100F0F1FB2046FFF758FFFA
:1011500060B1019902A800F049FC102204F10801D5
:1011600002A807F0DDFFB0FA80F0400906B010BD1C
:1011700070B504460025EEB2304600F0FFFC58B1D1
:1011800000213046013500F009FD08B9002070BD8E
:10119000022000F085FDEEE72046FFF731FF002832
:1011A000F4D004F58034207C80F00100EFE70000EB
:1011B000F0B5C9B006F05CF900F0ECFE18B90025F6
:1011C000284649B0F0BD69462A4802F0CBFF002806
:1011D0004BD1294C204602F0F5FF284802F0F2FFDF
:1011E000274802F0EFFF2146224803F067F8002865
:1011F000E5D1702007F072FF064610B1214B446024
:101200000360336830469B689847054600282ED017
:101210001A4F1948394603F051F805460028CED137
:10122000194807F05BFF044638B1184B476003606C
:1012300000F58033C0E902551D74236820469B6881
:101240009847054628B10E490C4803F037F80028A6
:10125000B5D1336830465B6898471CB12368204697
:101260005B68984700F07EFEAAE70025FAE704468F
:10127000EFE700BF58920008689200087F920008CC
:1012800095920008B892000814000100D49200085A
:101290002DE9F04FD44A8DB00B68D0F804A001932B
:1012A0001A440368D14E1A44D1F81C90DFF8B4C335
:1012B000DFF8B4B3D0E90234634003EA0A036340C1
:1012C00013444A6802920AEB7363029CC84A2244A0
:1012D000C468224484688AEA04051D4065401544B8
:1012E0008A68039203EB3555039CC24A2244846802
:1012F00022448AEA03042C4084EA0A041444CA689B
:1013000005EBF4340492164483EA05022240564465
:101310005A4032440E69059604EBB222059FB64E40
:101320003E441E4485EA040313406B4033444E6937
:10133000069602EB7363069FB04E3E442E4484EA49
:1013400002051D40654035448E69079603EB35550F
:10135000079FAB4E3E44264482EA03042C4054408F
:101360003444A84E4E4405EBF434164483EA050297
:1013700022405A4032440E6A089604EBB222089F7B
:10138000A14E3E441E4485EA040313406B4033449F
:101390004E6A099602EB7363099F9C4ED1F830E0C8
:1013A0003E44D1F83880F3442E4484EA02051D40BF
:1013B000654035448E6AA6F5244703EB35550A96F9
:1013C0004F3F274482EA03042C4054403C44CF6AF8
:1013D0000B9705EBF4340B9E8D4F3744029E174458
:1013E00083EA050222405A403A448A4F774404EB8C
:1013F000B2221F4485EA040313406B403B444F6B09
:10140000BC4402EB7363654484EA020C0CEA030CEF
:101410008CEA040C6544DFF854C2C44403EB355530
:10142000A44482EA03042C4054406444D1F83CC0F4
:10143000794905EBF4346144114483EA0502224002
:101440005A400A44754904EBB2223144079E1944BC
:1014500084EA02032B4063400B44714902EBF363BF
:1014600031440B9E0D4482EA03012140514029443E
:101470006C4D03EBF1513544019E254483EA010490
:1014800014405C402C44684D01EBB4443544069E46
:10149000154481EA04021A404A402A44634D04EB91
:1014A000323235440A9E1D4484EA02030B406340F5
:1014B0002B445F4D02EBF3633544059E0D4482EAF5
:1014C00003012140514029445A4D03EBF151654439
:1014D000254483EA010414405C402C44564D01EB42
:1014E000B4443544099E154481EA04021A404A4036
:1014F0002A44524D04EB32323544049E1D4484EAA2
:1015000002030B4063402B444D4D02EBF363454413
:101510000D4482EA0301214051402944494D03EB27
:10152000F1513544089E2C4483EA010515405D4085
:101530002C44454D01EBB4443544039E2A4481EAD2
:1015400004051D404D402A44404D04EB32323D44D9
:101550002B4484EA020593440D4065402B443C4DE6
:1015600002EBF3633544069E294482EA03052540D5
:1015700055402944374D03EBF1514D442C4483EA47
:10158000010515405D40254401EBB54581EA0504A0
:1015900004EA03024A405A44A6F5B82B089E05EB1C
:1015A0003232ABF2BE6B54405B4423442A4C344489
:1015B00002EB33730B9E0C4485EA0201594021442F
:1015C000264C344403EB7151029E254482EA030405
:1015D0004C402544224C444401EB3545144483EAF5
:1015E00001026A40224443E078A46AD7EECEBDC12E
:1015F00056B7C7E8DB702024AF0F7CF52AC68747B3
:10160000134630A8019546FDD8988069AFF7448B02
:10161000BED75C892211906B2108B44962251EF661
:1016200040B340C0515A5E26AAC7B6E95D102FD616
:101630005314440281E6A1D8C8FBD3E7E6CDE121EB
:10164000D60737C3870DD5F4ED145A4505E9E3A94C
:10165000F8A3EFFCD9026F6781F6718722619D6D57
:101660000C38E5FD937198FD8A4C2A8D8E4379A63E
:10167000934C344405EB7222059E1C4481EA050319
:10168000534023448F4C344402EB33730A9E0C4482
:1016900085EA0201594021448B4C4C4403EB7151C3
:1016A000254482EA03044C402C44884D354401EB28
:1016B0003444019E154483EA010262402A44844D69
:1016C0003D4404EB72221D4481EA040353402B4441
:1016D000804D354402EB3373049E294484EA0205AD
:1016E0005D4029447C4D354403EB7151079E2544F0
:1016F00082EA03044C402C44784D354401EB3444D9
:10170000099E2A4483EA010565401544744A32441F
:1017100004EB7525039E134481EA04026A401A44CF
:10172000704B734405EB32720B4484EA050151405F
:1017300019446D4B634402EB71511C4485EA02036A
:101740004B401C44694B334401EB3444019E1D441F
:1017500082EA010363402B44654D04EB7323354457
:10176000069E154463EA010262402A44614D03EB80
:10177000B2624D4462EA040929445F4D89EA0309D3
:10178000454449442C445D4D02EBB1513544049E1F
:1017900061EA03081D4488EA0208444401EB7444EA
:1017A00064EA02034B402B44554D04EBF32375448C
:1017B00063EA010E15448EEA040E0EEB0502514D4C
:1017C00003EBB262354462EA040E29440A9D8EEAB4
:1017D000030EA5F580164C4D7144A6F6833602EB38
:1017E000B151264461EA030454403444029E01EBA3
:1017F0007444354464EA02061D444E407319089E41
:10180000424D04EBF323354463EA01061544664078
:1018100072193F4D03EBB262654462EA0406294443
:101820003C4D5E403144079E02EBB151354461EAC4
:1018300003062C44384D56403D443444059E1D4417
:1018400001EB744464EA02034B402B44334D04EB38
:10185000F32335440B9E154463EA010262402A4497
:101860002F4D03EBB2623544039E0D4462EA04013E
:10187000594029442B4D02EBB15135442A4E2544A1
:1018800061EA030454402C44099D01EB74442E4446
:1018900064EA02051E4485EA01039D1903681A449F
:1018A0000AEB040303EBF5230260436083681C44E6
:1018B000C36819448460C1600DB0BDE8F08F00BFFB
:1018C00044EABEA4A9CFDE4B604BBBF670BCBFBEE2
:1018D000C67E9B28FA27A1EA8530EFD4051D88042F
:1018E00039D0D4D9E599DBE6F87CA21F6556ACC4A3
:1018F000442229F497FF2A43A72394AB39A093FCF1
:10190000C3595B6592CC0C8FD15D84854F7EA86FE7
:10191000E0E62CFE144301A3A111084E827E53F78A
:1019200035F23ABDBBD2D72A91D386EB094B03607F
:1019300003F18833436003F12943A3F59613A3F61B
:101940008B638360A3F18833C3600023C0E9043351
:10195000704700BF012345672DE9F843144602692B
:1019600005460E46E300C2F3C50800F118079B18B0
:10197000036122BF43690133436112F4FC7F436971
:1019800003EB5473436114D0C8F1400907EB08001E
:101990004C4504D22246BDE8F84307F0D1BB403C99
:1019A0004A464E4407F0CCFB444439462846FFF7EC
:1019B0006FFCA04606EB0409B8F13F0FA9EB080144
:1019C0000AD94022384607F0BBFB39462846A8F121
:1019D0004008FFF75DFCEFE7A1096FF03F023846D2
:1019E00002FB014206EB8111D5E7000070B50B69DF
:1019F00001F1180506460C46C3F3C503EA18501C4E
:101A00008022EA54C3F13F02072A1FD8002100F0C8
:101A100087F929462046FFF73BFC3822002128465B
:101A200000F07EF9236929462046236563696365D2
:101A3000FFF72EFC21461022304607F081FB20469E
:101A400058220021BDE8704000F06AB9C3F13702A6
:101A50000021E5E72DE9F84F4FF47A7306460D466D
:101A6000002402FB03F7DFF85080DFF8509098F96C
:101A700000305FFA84FA5A1C01D0A34210D159F801
:101A800024002A4631460368D3F820B03B46D847A5
:101A9000854205D1074B012083F800A0BDE8F88FEF
:101AA0000134042CE3D14FF4FA7004F0A5FD0020BA
:101AB000F4E700BF4434002010220020142200204C
:101AC000002307B5024601210DF107008DF807300C
:101AD000FFF7C0FF20B19DF8070003B05DF804FBDD
:101AE0004FF0FF30F9E700000A46042108B5FFF780
:101AF000B1FF80F00100C0B2404208BD074B0A466A
:101B000030B41978064B53F821400146236820462B
:101B1000DD69044BAC4630BC604700BF4434002054
:101B200014220020A086010070B50A4E00240A4D40
:101B300005F0D8F9308028683388834208D905F049
:101B4000CDF92B6804440133B4F5003F2B60F2D388
:101B500070BD00BF463400200034002005F090BA6C
:101B600000F1006000F500300068704700F100608F
:101B7000920000F5003005F011BA0000054B1A681C
:101B8000054B1B889B1A834202D9104405F0A6B965
:101B900000207047003400204634002038B5044649
:101BA000074D29B128682044BDE8384005F0AEB99A
:101BB0002868204405F098F90028F3D038BD00BF0C
:101BC000003400200020704700F1FF5000F58F1016
:101BD000D0F8000870470000064991F8243033B16E
:101BE00000230822086A81F82430FFF7BFBF0120D4
:101BF000704700BF04340020014B1868704700BFD5
:101C00000010005C194B01380322084470B51D68B0
:101C1000174BC5F30B042D0C1E88A6420BD15C6834
:101C20000A46013C824213460FD214F9016F4EB1AD
:101C300002F8016BF6E7013A03F10803ECD18142A7
:101C40000B4602D22C2203F8012B0424094A1688E1
:101C5000AE4204D1984284BF967803F8016B013CF0
:101C600002F10402F3D1581A70BD00BF0010005CED
:101C70002422002014930008022803D1024B4FF0C5
:101C800080529A61704700BF00100258022803D1A9
:101C9000024B4FF480529A61704700BF0010025807
:101CA000022804D1024A536983F480535361704778
:101CB0000010025870B504464FF47A764CB1412CAE
:101CC000254628BF412506FB05F0641B04F094FC63
:101CD000F4E770BD002310B5934203D0CC5CC4542C
:101CE0000133F9E710BD0000013810B510F9013FCC
:101CF0003BB191F900409C4203D11AB10131013A44
:101D0000F4E71AB191F90020981A10BD1046FCE7CB
:101D100003460246D01A12F9011B0029FAD1704776
:101D200002440346934202D003F8011BFAE77047CE
:101D30002DE9F8431F4D14460746884695F82420A0
:101D400052BBDFF870909CB395F824302BB9202259
:101D5000FF2148462F62FFF7E3FF95F82400414634
:101D6000C0F1080205EB8000A24228BF2246D6B28D
:101D70009200FFF7AFFF95F82430A41B17441E44D0
:101D80009044E4B2F6B2082E85F82460DBD1FFF768
:101D900023FF0028D7D108E02B6A03EB820383429C
:101DA000CFD0FFF719FF0028CBD10020BDE8F88382
:101DB0000120FBE704340020024B1A78024B1A7012
:101DC000704700BF4434002010220020F8B5194CA1
:101DD000194803F019FF2146174803F041FF246812
:101DE0004FF47A70154ED4F89020154DD2F804387F
:101DF000114F43F00203C2F80438FFF75BFF20469F
:101E0000104904F03BF8D4F890200424D2F80438A8
:101E100023F00203C2F804384FF4E133336055F87D
:101E2000040BB84202D0314603F04CFE013CF6D11F
:101E3000F8BD00BF149B0008784900202C34002016
:101E4000142200201C9B00080C4B70B50C4D04465E
:101E50001E780C4B55F826209A420DD00A4B0021D3
:101E600018221846FFF75CFF0460014655F826006B
:101E7000BDE8704003F026BE70BD00BF44340020B2
:101E800014220020784900202C340020F0B5A1B0A5
:101E900071B600230120002480261A46194602F05C
:101EA00073FD4FF4D067214A3D25136923BBD2F857
:101EB00010310BBB036804F1006199600368C3F83B
:101EC0000CD003685E6003681F6001680B6843F014
:101ED00001030B6001680B6823F01E030B600168AF
:101EE0000B68DB07FCD4037B8034416805FA03F3FD
:101EF000B4F5001F0B60D8D102F07CFDB4F5001FD3
:101F000011D000240A4E0B4D012005F0B9F833889A
:101F1000A34205D928682044013404F0F7FFF6E70E
:101F2000002005F0ADF861B621B0F0BD00200052F0
:101F3000463400200034002030B50A44084D914258
:101F40000DD011F8013B5840082340F30004013B39
:101F50002C4013F0FF0384EA5000F6D1EFE730BDC8
:101F60002083B8ED10B5084C01220849002001F08B
:101F7000B3FE23783BB1064803F01CFD044803F090
:101F80004FFD0023237010BD483400202493000827
:101F9000283700201D482DE9F041036D2BB901229F
:101FA0004FF48051503005F0A5FA194E33780BB13B
:101FB000FFF7D8FF0324174F4FF00008134D1549C2
:101FC0002846C7F8048003F01DFD284603F056FBA1
:101FD00048B1013C284603F023FD14F0FF04EED184
:101FE000204634700FE00C4901220C4801F074FEC9
:101FF000014618B1284603F0DDFCEAE7084800F086
:1020000011F801203070BDE8F08100BF28370020B2
:10201000483400203C220020249300084C34002047
:10202000289300080FB4002004B070470068704780
:1020300003460068596870470B0A017043700B0C27
:10204000090E8370C1707047110A027003714170EC
:10205000110C120E8170C2701A0A42711A0C1B0EFA
:102060008271C37170470000C36A0239023B8B4220
:1020700083BF4389006C01FB030000207047000010
:10208000C2F307238A76CB760378032B01BF120CA9
:102090000A75120A4A75704700F10B010022D3013C
:1020A00043EA520310F8012B52FA83F38842DAB262
:1020B000F5D110467047000010B541780446002065
:1020C000013102464901022A16BFA35C032203EB39
:1020D000C03302F101021EBF9BB203EB500398B262
:1020E0009142F0D810BD000002684AB1134613F8BF
:1020F000011B1F290DD93A29F9D1911C8B4202D01D
:102100004FF0FF3070471278302AF9D10360002079
:102110007047014B187870479836002038B50D4647
:10212000044618B9092000232B6038BD0368002B32
:10213000F8D01A78002AF5D08188DA889142F1D156
:10214000587804F0F5FB10F00100EBD12368EBE7C1
:1021500038B50D4640F25231144602F0B9F9FF2865
:1021600007D9012C0BD9030A022468702B70204672
:1021700038BD30B1002CFAD001242870F7E70024D4
:10218000F5E70446F3E700002DE9F8430026D0F810
:10219000008005460C468E76836B002B4AD098F85B
:1021A0000030042B4BD133463546402720E0B7F5AD
:1021B000187F80F0C480F90606F1010608BF0237D7
:1021C000D05B02372BB900F5205292B2B2F5006F06
:1021D0000DD305F11A01C5F1FF0240EA0340214485
:1021E000FFF7B6FF002800F0AA8005440020034650
:1021F000D8F8102092F82310B142D8D8002B40F024
:102200009E80002D00F09B8000232544AB766373F5
:10221000D8F81020137903F03701DB0621730BD4B3
:1022200002F13800FFF704FFC4E9000193896381DC
:10223000D3892381BDE8F88300200146F4E7C36C0D
:1022400001335ED1EA6B00232E26551E184615F881
:10225000011F013020290CD0052908BFE5210928DC
:1022600004D10B2B9EBFE71801337E73E7180133AF
:1022700079730B28EBD1E11800204873A17E002967
:102280004BD1002B40D06FF00C0604F10D00082557
:10229000361B331810F8011B002938D02E298BB2B9
:1022A0004AD0A3F14101192903D8117B0D4200D076
:1022B00020330373EDE7B9F1000F05D100F520538A
:1022C0009BB2B3F5006F0BD307F11A01C7F1FF0200
:1022D00040EA09402144FFF73BFF48B10744002092
:1022E00002368146D8F80C30985B0028E3D1384696
:1022F000B9F1000F4FF0000218BF002023189A76A2
:10230000A0E7B1463746EDE73F23A37601232344F8
:1023100000219976137B03B96373D37A02F11C0011
:1023200003F03F0323730023FFF780FE2060636008
:10233000D38A6381138B7CE710250B46B9E73F23D3
:102340000125A37660E7000038B50546002435F87E
:10235000020B08B9204638BD02F0EEF86308C2B29D
:1023600003EBC43312FA83F39AB2C0F3072303EBEF
:10237000520303EBC2339CB2E9E7000037B5C378E0
:1023800004461BB90025284603B030BD00F14C01BE
:10239000826C01234078019104F0F0FA054680B97F
:1023A000A36BE070A06C226BC31A9342EAD2A378AD
:1023B0000199022BE6D102440123607804F0DEFA91
:1023C000E1E70125DFE7000038B5836C05460C46E0
:1023D0008B4210D0FFF7D2FF60B92246012305F1EE
:1023E0004C01687804F0A6FA00281CBF4FF0FF34B7
:1023F0000120AC6438BD0020FCE7000038B50023A4
:102400000446C3704FF0FF338364FFF7DDFF0028FD
:102410004BD1B4F84A524AF655239D4207D10B22BC
:10242000254904F14C0006F07BFE00283FD094F8CB
:102430004C30EB2B03D01833DBB2012B2ED84AF6ED
:1024400055239D4206D108221C4904F19E0006F046
:1024500067FE48B3B4F85730B3F5007F1ED194F847
:102460005930DBB15A1E1A4218D1B4F85A30ABB108
:1024700094F85C30013B012B10D8B4F85D306BB19F
:10248000B4F85F307F2B06D804F16C00FFF7CEFD67
:10249000B0F5803F02D3B4F8623053B94AF6552004
:1024A00085420CBF0220032038BD0420FCE7012038
:1024B000FAE70020F8E700BF549300086093000893
:1024C00002392DE9F04701F007044FF0010A466C8C
:1024D00005460AFA04F41746984606EB1136C1F38E
:1024E000C809E4B2314628460136FFF76DFF18B13E
:1024F0000120BDE8F087994605EB090292F84C30BF
:10250000234214BF01210021414513D06340013F04
:1025100082F84C3085F803A0EBD0640014F0FF047F
:10252000EAD109F1010301244FF00009B3F5007F5E
:10253000E1D1D7E70220DCE701290246F8B50C46D5
:1025400040F28C800668F36A8B4240F287803378D1
:10255000013B032B00F28280DFE803F00229384BB5
:1025600004EB5405B16B304601EB5521FFF72CFF0E
:1025700010B14FF0FF30F8BD6F1CC5F30805B16B0B
:102580003046354401EB572195F84C50FFF71CFFBE
:102590000028EED1C7F30807E3073E4496F84C0045
:1025A00045EA00204CBF0009C0F30B00E3E7B16B24
:1025B000304601EB1421FFF707FF0028D9D1640052
:1025C00004F4FF742644B6F84C00D4E7B16B3046EF
:1025D00001EBD411FFF7F8FE0028CAD1A40006F1E0
:1025E0004C0004F4FE742044FFF720FD20F07040FE
:1025F000C1E7D0E90430D57953EA000101D09168F0
:1026000001B95DBB9168022DA4EB01010DD1013B25
:10261000728940F1FF305B0A43EAC053B3FBF2F327
:1026200099421BD81CD0601CA5E7032D02D19369E9
:102630008B42F8D8D3699BB9B16B304601EBD4110A
:10264000FFF7C2FE002894D1A0004C3600F4FE70C3
:102650003044FFF7EBFC20F000408CE701208AE7D4
:102660006FF0004087E70000F8B5066804460D46A5
:102670003378042B0CBF4FF080524FF400128A4283
:1026800001D80220F8BDCA06FBD182680163D2B925
:10269000022B13D83389B3EB551FF2D9F36BA36325
:1026A000A36B6263002BECD003EB55234C36C5F3D0
:1026B00008050020A3633544E563E3E7F36BC271CB
:1026C000002BE7D01A4677897F02BD42114604D21B
:1026D0003046FFF7C9FCA063E2E72046FFF72CFF76
:1026E000431C024606D00128CBD9F36A8342C8D9DD
:1026F000ED1BEAE70120C5E701292DE9F047064671
:102700000C46174608D9C36A8B4205D90378022BB9
:1027100062D003D8012B22D0022552E0033B012BCB
:10272000FAD8816B01EBD411FFF74EFE0546002865
:1027300047D1A40006F14C0304F4FE741C44337822
:10274000042B07D0204627F07047FFF76FFC00F0FE
:102750007040074339462046FFF76EFC2FE001EB3F
:102760005108816B01EB5821FFF72EFE054640BB57
:1027700014F0010406F14C0908F1010AC8F3080835
:1027800008BFFBB230461FBF19F8083003F00F0234
:102790003B0103F0F00318BF134309F8083001238D
:1027A000B16BF37001EB5A21FFF70EFE054640B9FD
:1027B000CAF3080A44B1C7F3071709F80A700123DE
:1027C000F3702846BDE8F08719F80A30C7F30327ED
:1027D00023F00F031F43F0E7816B01EB1421FFF798
:1027E000F3FD05460028ECD1640006F14C0304F427
:1027F000FF741F551919C7F307274F70DFE7000053
:10280000F8B504460E461746E3690BB91846F8BDFD
:10281000012BA6EB0305206814BFAA1C3A46691CCD
:10282000FFF76AFF0028F2D1E369013BE361EBE7C0
:1028300001292DE9F84306460C461746056802D8DB
:102840000220BDE8F883EB6A8B42F9D97AB9A14638
:1028500021463046A046FFF76FFE0446B0B92B78FC
:10286000042B02D1002F43D1F7710020E9E72B7828
:10287000042B02D1C379022BE9D04FF0FF32394645
:102880002846FFF739FF0028E1D0DAE70128D7D042
:10289000421C01D10120D4E72B78042B19D1EA6A1C
:1028A000AB69023A93421CD308F10102A2420CD058
:1028B0002B78042B08D10023A2EB090249462846B5
:1028C000FFF7FEFD0028BCD1A146EB6AA342BFD8AA
:1028D000C5E7002241462846FFF70EFF0028DED05C
:1028E000AFE70133AB612B7943F001032B71DBE7D9
:1028F000F3798BB9B468BC4202D10223F371B4E717
:1029000021463046FFF718FE012899D9431CC1D053
:1029100001348442EFD0A8E7032BA6D1B368BB42B1
:10292000A3D8B2691344BB429FD3E6E770B5C3791D
:102930000446032B06D181688369CD18A94203D1CF
:102940000023E371002070BD4E1C20683246FFF763
:10295000D3FE0028F7D13146F0E700002DE9F74318
:1029600005460191FFF70AFD0446002849D105F10B
:102970004C09019928464FF40072FFF775FB214678
:10298000A86407464846FFF7CBF96C896402B4F5A2
:10299000004F28BF4FF40044B4F5007F2FD92046E4
:1029A00004F04EFC804630B122460021640A002625
:1029B000FFF7B6F909E06408EEE72346BA19414685
:1029C000687803F0DBFF18B926446B899E42F4D384
:1029D000404604F045FC6889801B18BF012003B005
:1029E000BDE8F08301366B899E42F4D20123BA1907
:1029F0004946687803F0C2FF0028F3D0EBE70026D1
:102A0000F1E70120EBE70000F8B50446FFF7B6FC5C
:102A10000546002842D12378032B37D12779012F8F
:102A200034D104F14C0601464FF400723046FFF7F2
:102A300077F955234122722184F84A32AA2304F5FA
:102A40000D7084F84F2084F84B32522384F83012F2
:102A500084F84C3084F84D30612384F8311284F8C6
:102A60004E3084F83332A16984F83222FFF7E4FA59
:102A7000616904F50E70FFF7DFFA626B3B46314681
:102A800001326078A26403F079FF2571002260783A
:102A9000114603F097FF003818BF0120F8BD000071
:102AA00000232DE9F0430B6085B00F461546FFF774
:102AB0001BFB061EC0F2B281804B53F82640002C4F
:102AC00000F0AE813C6005F0FE0523786BB16078C4
:102AD00003F02EFFC70708D41DB110F0040500D085
:102AE0000A25284605B0BDE8F0830023F0B2237024
:102AF000607003F009FFC10700F194810DB1420736
:102B0000EED400212046FFF779FC022840F099809E
:102B10006E4604F2122304F2522132461846103354
:102B2000FFF784FA42F8040B8B42F7D1002556F8E0
:102B3000041B00297DD02046FFF760FC012879D8CE
:102B40000128A26C40F0C08004F1570304F18C010D
:102B500013F8015B002D7BD18B42F9D1B4F8B4306E
:102B6000B3F5807F74D194F8B830092B70D104F19B
:102B70009400FFF75DFA4FF0FF33171841F10001A1
:102B8000BB4275EB010363D304F1A000FFF74EFADB
:102B900094F8BA302063012BA37059D194F8B990FE
:102BA00003FA09F91FFA89F36381002B50D0444BD3
:102BB00004F1A800FFF73AFA0646984248D8831C69
:102BC000626304F1A400E362FFF730FA00EB02084D
:102BD00004F19C00C4F84080FFF728FA10441FFA63
:102BE00089F2A06306FB02F313EB080345EB050231
:102BF0009F4271EB02032BD32E4604F1AC00FFF78A
:102C000015FAE06365B96389B34221D9E16B2046C7
:102C1000FFF72AFA81192046FFF7D6FB98B901364B
:102C2000631993F84C30812B14D02035C5F3080577
:102C3000E8E703200135042D7FF479AF042807D19C
:102C400001E0042801D101254BE701287FF678AF88
:102C50000D2546E705F1140004F14C063044FFF75A
:102C6000E5F901280546F3D9E36A8342F0D9618981
:102C7000821E236C02FB01336364A16B204601EBCF
:102C8000D511FFF7A1FB0028DDD105F07F0006EB91
:102C90008000FFF7CBF9431C03D00135A842ECD0EC
:102CA000D6E70425C4E90500064A257000251388E7
:102CB000E56101339BB21380E38012E79C3600206C
:102CC000FDFFFF7FA0360020B4F85730B3F5007F3A
:102CD000BED1B4F8626026B904F17000FFF7A6F91E
:102CE000064694F85C302663591EA3700129AFD8BC
:102CF00094F859506581002DAAD0691E2942A7D1A8
:102D0000B4F85D8018F00F0FA4F80880A0D1B4F8D3
:102D10005F0018B904F16C00FFF788F9B4F85A1095
:102D2000002995D006FB03FE01EB181CF444604516
:102D30008ED3A0EB0C00A842B0FBF5F388D33E483D
:102D4000834285D84FF6F57083426DD903259F1CC9
:102D5000114402EB0C03032DE7626263A163236459
:102D60004CD1B4F8763053EA08037FF471AFBB005E
:102D700004F17800FFF75AF9E06303F2FF13B6EBB2
:102D8000532FFFF465AF4FF0FF33032DC4E9053334
:102D90004FF08003237187D1B4F87C30012B83D1AD
:102DA000511C2046FFF710FB00287FF47DAFB4F8DC
:102DB0004A224AF6552320719A427FF475AF1F4B81
:102DC00004F14C00FFF732F998427FF46DAF03F144
:102DD000FF5304F50C70FFF729F903F50053203376
:102DE00098427FF461AF04F50D70FFF71FF9A06101
:102DF00004F50E70FFF71AF9606155E7B8F1000F9E
:102E00003FF426AF7144022D4FEA4703E1631EBF32
:102E1000D91907F0010303EB5103AEE70B2560E678
:102E20000C255EE603255CE640F6F575AB428CBFEB
:102E3000022501258BE700BFF5FFFF0F52526141CC
:102E40002DE9F84F07460568884649B96E69C6B14D
:102E5000EB6AB34298BF0126AB69A3B9002405E031
:102E6000FFF76AFB0128044603D801242046BDE889
:102E7000F88F421C00F0D280EB6A8342F6D84646B7
:102E8000EAE70126E8E72A78EB6A042A40F0838023
:102E9000A6F1020A023B4FF0010B9A4528BF4FF002
:102EA000000AD146696C284601EB1931FFF78CFA0C
:102EB00000283BD109F00703EA6AC9F3C8010BFAFD
:102EC00003F3901EDBB26A184C4609F1010992F82F
:102ED0004C20814502EA030233BF5B0000234FF41C
:102EE0000071DBB228BF9946B2B90234631E0333C6
:102EF000BCD80123214628461A46FFF7E1FA0228EA
:102F0000B3D0012800F08A80B8F1000F13D102235A
:102F1000FB710028A9D130E0CA450AD0002BD2D1DC
:102F20000131B1F5007FBDD20123CCE74FF0FF3472
:102F3000DCE70024DAE7FB79022B07D1731CA342FC
:102F4000E7D0BB68F31ABB610323FB7108F10102F0
:102F5000FB69A24205D113B10133FB61D9E702231A
:102F6000FBE70BB90123FB61224641463846FFF7D8
:102F700047FC00284FD10123FB61EA6AAB69023AA2
:102F80006C6193429CBF03F1FF33AB612B7943F03B
:102F900001032B716AE7464514D1741C3846A342DD
:102FA00098BF02242146FFF7C7FA01283FF45DAF1E
:102FB000431C33D0E0B16B69012B03D9EA6A934219
:102FC00038BF1E4634460134EB6AA34203D8012EB3
:102FD0007FF644AF022421463846FFF7ADFA48B1E8
:102FE00001283FF442AF013018D0B442EBD135E7AD
:102FF000002CE7D04FF0FF3221462846FFF77CFB3C
:1030000048B9B8F1000FB8D0224641462846FFF72C
:1030100073FB0028B1D001287FF427AF4FF0FF34B5
:1030200024E700002DE9F84306680446076B89464B
:1030300033782037042B0CBF4FF080534FF400132C
:10304000BB429CBF00238363836B73B1C7F3080843
:10305000B8F1000F3CD10133416B836339B9338937
:10306000B3EB571F34D80023A36304200AE073890D
:10307000013B13EA57232BD1FFF75EFA01280546DF
:1030800002D80220BDE8F883421C01D10120F9E7F3
:10309000F36A834216D8B9F1000FE4D0616B204681
:1030A000FFF7CEFE0546C8B10128EAD0431CEDD09B
:1030B00001463046FFF752FC0028E7D1E37943F0A0
:1030C0000403E371294630466563FEF7CDFFA06334
:1030D0004C36002027634644E663D3E70720D1E758
:1030E000F8B50E46002104460768FFF7BDFA98B907
:1030F0000546A16B3846FFF767F968B93A78E36B84
:10310000042A1B780CD11B060ED50546012120464A
:10311000FFF788FF0028ECD0042808BF072006E04E
:10312000E52B01D0002BF0D10135B542EED1F8BD31
:10313000C16C4B1C2DE9F04104460568066B1FD19C
:10314000E5274FF00108A16B2846FFF73DF998B934
:103150002A78E36B042A09BF1A781F7002F07F02F5
:103160001A7085F80380236BB3420DD200212046EC
:10317000FFF758FF0028E6D0042808BF022003E02C
:10318000FFF772FA0028DBD0BDE8F0812DE9F041AD
:1031900005460068A96B0669FFF716F9044620B9D1
:1031A000EB6B1A78852A03D002242046BDE8F08113
:1031B000324603F1200153F8040B8B4242F8040B12
:1031C000F9D1777801377F01A7F16003B3F5007F6C
:1031D000EAD800212846FFF725FF04280446E3D05B
:1031E0000028E2D1A96B2868FFF7EEF80446002812
:1031F000DBD1EB6B1A78C02AD6D106F1200203F19D
:10320000200153F8040B8B4242F8040BF9D196F8D5
:1032100023300F222C33B3FBF2F3B7EB431FC3D39E
:103220004FF0400800212846FFF7FCFE0428044622
:10323000BAD00028B9D1A96B2868FFF7C5F80446B1
:103240000028B2D1EB6B1A78C12AADD1B8F5187F3E
:1032500009D206EB080203F1200153F8040B8B425C
:1032600042F8040BF9D108F120084745DAD8B8F53F
:10327000187F9AD83046FEF71FFF7388834294D098
:1032800092E700000B68002210B5036004460B6A49
:1032900083604B6AC261C37123F0FF03896AC0E98E
:1032A0000432C164FFF7E0F920B92046BDE81040C0
:1032B000FFF76CBF10BD0000F8B503680546012795
:1032C0001C692046FEF7F8FEA070000A6678E070E0
:1032D0002846E96CFFF7C8F920B1022828BF022070
:1032E000C0B2F8BDA96B2868FFF76EF80028F4D1CA
:1032F000EB6B04F1200254F8041B944243F8041BC6
:10330000F9D12B68DF70002EE7D000212846013E5E
:10331000FFF788FEE0E700002DE9F8434FF0FF08D3
:1033200006460768042445464FF6FF79B16B11B98C
:10333000002C73D063E03846FFF746F804460028B7
:103340005DD1F06B0378002B6ED03A78042A11D14E
:10335000852B4DD1336B3046F364FFF717FF0446DE
:1033600000284CD13B691B7903F03F03B371204621
:10337000BDE8F883C27AE52B02F03F02B27143D078
:103380002E2B41D022F0200108293DD00F2A40D118
:10339000590637D503F0BF05336B90F80D80F36401
:1033A000437B434530D1428B72BB03780D21FC68CF
:1033B00023F04003DFF874E0013B4B4301211EF88A
:1033C00001CB30F80CC009B3FF2B1DD824F813C073
:1033D0006146013301320D2AF1D10278520605D53A
:1033E00021B1FF2B10D8002224F81320013DEDB2AB
:1033F00000213046FFF716FE0446002896D0002331
:10340000B363B4E7AB42CBD0FF25F1E7CC45E1D0C5
:10341000FAE72DB9FEF740FE404501D10024A6E7AA
:103420004FF0FF33F364A2E70424E8E7FC930008BD
:103430002DE9F04F002187B00446D0F80090FFF747
:1034400013F9804670B999F80030042B33D1D9F8BC
:103450000C00FEF779FF07462046FFF75DFF0546A3
:1034600020B18046404607B0BDE8F08FD9F8103053
:103470009A8CBA42F0D193F823B040265D4506D12C
:10348000D9F80C3033F81530002BE5D1EAE7F10616
:10349000D9F8103008BF0236985B01F04DF8D9F822
:1034A0000C30824633F8150001F046F88245D3D13E
:1034B00002360135E2E74FF0FF0A4FF0FF3B554679
:1034C000C4F84CB0A16B4846FEF77EFF00285CD1E3
:1034D000E66B3778002F77D0F27AE52F02F03F03C2
:1034E000A37103D0120704D50F2B04D0C4F84CB03D
:1034F0004FE00F2B54D194F84B3058063FD4790647
:1035000045D5236B07F0BF0796F80DA0E364737BE6
:1035100053453ED1738B002B3BD135780121D9F82F
:103520000C3005F03F0501930D23013D5D43284B11
:1035300013F8012BB25A71B3FF2D059329D8104609
:10354000049200F0F9FF6B1C03900293019B33F887
:10355000150000F0F1FF039981421AD1049A029DEF
:103560001146059B1B4A9342E2D133785A0604D593
:1035700019B1019B33F815305BB97D1EEDB2002106
:103580002046FFF74FFD00289CD080466AE7BD42E9
:10359000BDD0FF25F3E74FF6FF708242E2D0F8E797
:1035A0002DB93046FEF778FD50453FF45BAF94F8F7
:1035B0004B30DB079AD40B2204F14001304605F072
:1035C000AFFD002892D14DE74FF004084AE700BF55
:1035D000FC930008099400082DE9F04F90F84BB0D7
:1035E00099B004461BF0A00540F068810668F268B7
:1035F00032F81530002B4AD13378042B40F0878005
:103600000F230E352046B5FBF3F5A91CFFF768FD27
:103610008146002877D1236B0135A3EB4515E3796B
:103620005A07E56435D523F004032046E371FFF71C
:103630007DF950BB4FF0FF32616B2046FFF7E0F899
:1036400018BBA3682BB3214604A8FFF71BFEE0B903
:1036500070894FF40071D4E90423E0FB0123306941
:10366000C4E904233830FEF7EFFC3069D4E90423C1
:103670002830FEF7E9FCE379326904A843F001033E
:1036800082F82130FFF718FE18B181463BE0013582
:10369000AEE7D6E90354402200212046FEF740FB66
:1036A0008523012140222370C0234FF0C10C04EB7D
:1036B000010884F8203000231E469E46571C04F85B
:1036C00002C0F0B2023204F807E021B135F813105D
:1036D00009B10133DBB20F0AA15408F802700232BB
:1036E000D706F2D135F813700136002FE6D184F8F1
:1036F0002330831C28466370FEF726FE84F82400DE
:10370000000A84F82500484619B0BDE8F08F04F19E
:1037100040070DF1100A1BF0010F97E807008AE837
:10372000070000F0D38040234FF0010884F84B30AD
:10373000BC46F368B8F1050F9AE80700ACE803004F
:103740002CF8022B4FEA12428CF8002059D9981E0F
:10375000424630F8021F002942D10DF10F0C07211B
:1037600002F00F0E914612090EF13000392888BF81
:103770000EF1370001390CF8010902D0B9F10F0F31
:10378000EED818AB7E205A1802F8580C38460022A2
:10379000914206D010F801CB02F1010EBCF1200FCE
:1037A00031D104F13F0C072902F1010297BF18AB98
:1037B00020205818013198BF10F8580C072A0CF82F
:1037C0000200F0D92046FFF733FE8146002878D169
:1037D00008F10108B8F1640FAAD14FF0070992E788
:1037E0004FF0100C01F0010E49080EEB4202D3031A
:1037F00044BF82F4883282F02102BCF1010CF1D185
:10380000A7E74246A9E77246C2E7216B2046A1EB33
:103810004511FEF729FF814600287FF474AF4FF66B
:10382000FF783846FEF738FC0190A16B3046FEF772
:10383000CBFD814600287FF466AFE36BE9B2019AC5
:103840004FF00D0CD6F80CE05A734FF00F02DFF872
:10385000E0A0DA724A1E18730CFB02F284469876D6
:10386000D87640451AF8019B0CF1010C18BF3EF8C0
:10387000120003EB090B18BF013203F809004FEAED
:103880001029002808BF4046BCF10D0F8BF80190AD
:10389000E7D1404502D03EF812200AB941F040017C
:1038A0001970012300212046F370FFF7BBFB81460E
:1038B00000287FF428AF013DB7D11BE04FF0060987
:1038C00021E704287FF41FAF84F84BB01BF0020FF0
:1038D00020461BBF0C350D210125B5FBF1F518BFA6
:1038E00001352946FFF7FCFB814600287FF40BAF2A
:1038F000013D8AD1A16B3046FEF766FD8146002866
:103900007FF401AF01462022E06BFEF709FAE36B7A
:1039100003CF18605960BA7839889A72198194F87F
:103920004B30E26B03F0180313730123F370EAE6E4
:10393000FC93000810B504460A463430FEF776FBC7
:10394000886004F13800FEF773FBC2E9040194F8C3
:10395000213003F00203D3710023D36110BD0000B6
:1039600003284B8B04BF8A8A43EA024318467047F8
:103970002DE9F04F0B7899B0044689462F2BD0F8EB
:1039800000B001D05C2B09D14A4613789146013230
:103990002F2BFAD05C2BF8D0002301E0DBF81C3091
:1039A000A3600023E3619BF80030042B1ED1A368C1
:1039B000E3B1DBF82030214604A82362DBF8243091
:1039C0006362DBF82830A362FFF75CFC0346002843
:1039D00054D1DBF8102002F13800FEF727FBC4E9D0
:1039E000040392F8213003F00203E37199F80030E8
:1039F0001F2B00F2358180230021204684F84B30B4
:103A000019B0BDE8F04FFEF72FBE49460B78894646
:103A100001312F2BFAD05C2BF8D01F2B8CBF002547
:103A20000425012F2FD113882E2B31D1002322F80A
:103A3000173004F140029F428CBF2E212021013318
:103A40000B2B02F8011BF6D145F02005204684F827
:103A50004B50FFF7EDFC94F84B30002800F0E78066
:103A600004280BD1990603F0040240F1DC80002AFF
:103A700000F0F6808023002084F84B3019B0BDE8B8
:103A8000F08F0425CDE7022F02D153882E2BCAD008
:103A9000911E87BB002322F81730002F00F0118100
:103AA00032F81300194601332028F9D009B92E281D
:103AB00001D145F00305901E30F817302E2B01D0B0
:103AC000013FF9D14FF020334FF0000A6364D04634
:103AD0002364C4F847300823481C32F81160009072
:103AE000F6B1202E03D02E2E0DD1B84210D045F0C5
:103AF00003050099F0E731F81730202B01D02E2B69
:103B0000C8D1013FC5E79A4505D20099B9423BD1DA
:103B10000B2B30D101E00B2B27D145F003050B23F4
:103B200094F84020E52A04BF052284F84020082BA1
:103B300004BF4FEA88085FFA88F808F00C030C2BE2
:103B400003D008F00303032B01D145F00205A807B9
:103B50003FF57CAF18F0010F18BF45F0100518F0C5
:103B6000040F18BF45F0080570E70099B94202D06C
:103B700045F00305D4D84FEA88080B234FF0080A14
:103B800000975FFA88F8B4E77F2E15D9304640F2E7
:103B90005231CDE9022345F00203019300F098FC75
:103BA00010F0800F0646DDE9022316D000F07F06F4
:103BB00046498E5D019D46B331464548CDE9012316
:103BC00005F01CFBDDE90123F8B9A6F1410189B23A
:103BD00019291ED848F0020810E0FF28EAD9591E1A
:103BE0008A4503D345F003059A4682E704EB0A01B0
:103BF000000A0AF1010A019D81F8400004EB0A0164
:103C00000AF1010A81F8406073E745F003055F2679
:103C1000F4E7A6F1610189B219299EBF203E48F060
:103C20000108B6B2EAE7002A08BF052026E75A07CE
:103C30003FF524AFA379DB0645D59BF800000428A7
:103C400035D1A3682146E27923622369DBF81000AD
:103C500023F0FF0313436362E36CA362FFF76AFE82
:103C600023680027DA6819F8010B00283FF409AF30
:103C700040F25231009200F04BFC054608B31F2879
:103C8000009A7FF6FEAE2F283FF4BFAE5C283FF4CB
:103C9000BCAE7F2805D801460E4805F0AFFA009A61
:103CA00078B9FF2F0DD022F817500137DBE7216BD1
:103CB0000BF14C03C1F308011944FFF751FEA0605A
:103CC000CEE70620DAE60520D8E600BF7C930008A0
:103CD000759300086C9300081FB5CDE9001003A888
:103CE00014460391FEF700FA002815DB0B4A52F840
:103CF00020300BB100211970019B0BB1002119700C
:103D000042F820302CB1002201A96846FEF7C8FE17
:103D10000446204604B010BD0B24FAE79C36002070
:103D20002DE9F04798B0904605460191002800F033
:103D3000528102F03F0603A901A83246FEF7B0FE09
:103D4000002840F04681039B4FF48C60049303F0FD
:103D500077FA0746002800F04081039B00F50072C7
:103D60000199D86004A81A61FFF702FE044620B941
:103D70009DF95B30002BB8BF062418F01C0F00F033
:103D8000CD80002C4CD0042C40D104A8FFF724FC9B
:103D9000044600283AD146F00806039B1A78042A04
:103DA00040F08380186929462B60FFF7C3FD039B11
:103DB0001E22002118690230FDF7B2FF039C00218A
:103DC0001A2220692630FDF7ABFF236920221A71E1
:103DD000246903F06DFA0146012208342046FEF7FB
:103DE0002BF9039B04A81B6983F82120FFF764FAD1
:103DF000044658B9A96801B302462846FEF718FDE3
:103E0000AB68039A0446013B5361B4B1384603F0F2
:103E100027FA0CB100232B60204618B0BDE8F087CC
:103E20009DF8163013F0110F40F0848018F0040F45
:103E300040F0C98018F0080FAFD1039A31071399E9
:103E4000936C48BF46F04006E964AB6410780428E0
:103E500072D1069B9DF817102B62089B106923F006
:103E6000FF030B4329466B62179BAB62FFF762FDB2
:103E7000DDF80CA00024002205F15008BAF8063045
:103E800021464046C5F800A0AB80002385F830608D
:103E900085F831406C64C5E90E234FF40072FDF7DC
:103EA0003FFFB20653D40024B0E703F001FA014605
:103EB000009013980E30FEF7BFF813980099163053
:103EC000FEF7BAF8039C13992078FFF749FD2023E9
:103ED00000228046CB7220461399FEF7D1F8139B3F
:103EE000002201211A775A779A77DA77039BD970E3
:103EF000B8F1000FA1D0414604A8D3F84890FEF7CE
:103F000097FC0446002881D149460398FEF75CFAE5
:103F1000039B044608F1FF30586176E7002C7FF4DC
:103F200075AF9DF81630DC064FD418F0020F84D020
:103F3000D80782D5072469E7FFF712FD0023A860A0
:103F400001F11C00FEF772F86B61286190E7D5E97A
:103F5000046956EA0903A6D0BAF80AA0A9684FEA8C
:103F60004A2AC5E90E69B24574EB09031BD3002444
:103F70002964002C7FF44AAFC6F30803002B92D0CB
:103F8000039C2046FEF770F808B3760A01234146E9
:103F900046EAC95682196A64607802F0CBFC041EB6
:103FA00018BF012432E72846FEF7C6FAB6EB0A0628
:103FB000014669F10009012803D9431CD3D101242A
:103FC000D6E70224D4E7082420E704241EE70224CD
:103FD0001CE704461EE709241EE711241CE7000025
:103FE0002DE9F04F994685B00023884603A9044681
:103FF000C9F800301646FEF791F8054680BB94F8E4
:1040000031506DBB94F8303013F00103009300F091
:10401000A68004F1500AD4E90432D4E90E011B1A37
:1040200062EB0102B34272F1000238BF1E46BEB11C
:10403000D4E90E10C1F30803002B40F08280039BEB
:104040005A894B0A013A43EAC0531A401BD151EA3C
:10405000000309D1A06801280DD8022584F8315049
:10406000284605B0BDE8F08F216C20460192FEF78E
:1040700063FA019AEFE7431C04D10123009D84F801
:104080003130EDE72064DDF80CB0216C5846FDF7C7
:10409000EBFF0028E1D0B6F5007F02EB000731D33B
:1040A000BBF80A1002EB5620730A88429BF8010005
:1040B00088BF8B1A3A464146019302F03BFC002828
:1040C000DBD194F93020019B002A0BDA606CC01B15
:1040D000984207D24FF40072514608EB4020FDF79A
:1040E000F9FD019B5F02D9F80030F61BB8443B4450
:1040F000C9F80030D4E90E32DB1942F10002C4E9FC
:104100000E3294E7626CBA421AD094F93030002B28
:104110000DDA012351469BF8010002F02FFC002824
:10412000ABD194F8303003F07F0384F8303003983B
:1041300001233A465146407802F0FCFB00289CD10E
:104140006764A16B4046C1F30801C1F50077514493
:10415000B74228BF37463A46FDF7BCFDC3E70725FF
:104160007EE7000070B596B00E460022019002A9CD
:1041700001A8FEF795FC0446E0B94FF48C6003F00B
:104180005FF80546D8B1029B00F500720199D8602E
:1041900002A81A61FFF7ECFB044640B99DF95330C1
:1041A000002B0ADB1EB1314602A8FDF7EDFF2846C1
:1041B00003F056F8204616B070BD0624F7E7112428
:1041C000F8E7000070B5B8B00222019003A901A879
:1041D000FEF766FC044608BB039B4FF48C6010930B
:1041E00003F02EF80546002866D0039B00F5007208
:1041F0000199D86010A81A61FFF7BAFB044650B9BC
:104200009DF88B30980655D4190653D49DF8463046
:10421000DA0706D50724284603F022F8204638B0EE
:1042200070BD039B04931878042814D104A918695D
:10423000FFF780FB069E9DF84630DB0610D410A8E1
:10424000FEF776FF04460028E5D156BB0398FEF73B
:10425000DBFB0446DFE71F99FFF782FB0646EAE730
:10426000039BDA69B242D5D024930021269624A874
:104270001B78042B01BFDDE90823CDE928239DF835
:1042800017308DF89730FEF7EFF904460028C2D1B9
:1042900024A8FFF741F804460028BBD00428BAD16F
:1042A000CDE70246314604A8FEF7C2FA04460028CC
:1042B000B1D1CBE70624AEE71124AFE7F0B5BDB02E
:1042C000CDE900106846FDF70FFF022203A901A8FF
:1042D000FEF7E6FB0446002841D1039B4FF48C60B7
:1042E000149302F0ADFF0546002800F0EE80039B1A
:1042F00000F5007214AE0199D8601A613046FFF7DC
:1043000037FB044640BB9DF89B3013F0A00F40F0F4
:10431000D880039B009F1A78042A68D11B6904ACDB
:1043200003F1400C1868083353F8041C2246634517
:1043300003C21446F6D15022314628A8FDF7CAFC24
:10434000394628A8FFF714FB044600284CD12A9AC6
:10435000169B9A4206D00824284602F081FF204688
:104360003DB0F0BD349A209B9A42F4D128A8FFF7C3
:1043700033F904460028EFD1039B04AF1B6993F87F
:1043800001E093F823C09C8C3A46083303CAB2423A
:1043900043F8080C43F8041C1746F5D1039B28A8E2
:1043A0001B6983F801E0039B1A6982F823C01A692C
:1043B00082F82440240A82F825401A691379D90624
:1043C0005CBF43F020031371FEF776FF044600281C
:1043D000C2D13046FEF7ACFE04460028BCD103989B
:1043E000FEF712FB0446B7E70428B5D1BEE7239ACF
:1043F00004AB02F1200C1068083252F8041C1C4671
:10440000624503C42346F6D15022314628A8FDF761
:1044100061FC394628A8FFF7ABFA044600284CD1C6
:104420002A9A169B9A4296D1349A209B9A4292D10C
:1044300028A8FFF7D1F8044600288DD137990DF14F
:104440001D030DF12D0001F10D0253F8044B8342C1
:1044500042F8044BF9D11888012710809B7893709B
:104460009DF81B30039CDA0658BF43F02003CB7243
:10447000E770CB7ADB06ACD5169A2A9B9A42A8D075
:104480002078FFF76DFA01462046FDF7EDFD014665
:10449000C8B12046FDF798FF044600287FF45CAFC2
:1044A000039890F86D302E2B93D12A9A00F16C016D
:1044B000FDF7E6FD039BDF708BE704287FF44CAF2C
:1044C000B6E7062448E7022446E7112447E7000040
:1044D0007F2810B501D880B210BDB0F5803F13D24F
:1044E00040F2523399420FD10849002231F8024B71
:1044F00093B2844203D103F18000C0B2ECE70132F1
:10450000802AF3D11346F6E70020E5E7BC960008C1
:104510007F280DD940F25233994208D1FF2806D89E
:1045200000F10040034B803833F810007047002042
:10453000704700BFBC960008B0F5803FF0B522D2AE
:104540001F4A83B21F49B0F5805F28BF0A46141D79
:1045500034F8042C2146AAB1934213D334F8025CF8
:104560002E0AEFB252FA85F5A84222DA082E09D8AF
:10457000DFE806F0050A10121416181A1C00801A3B
:1045800034F810301846F0BD981A00F001001B1ADC
:104590009BB2F7E7103BFBE7203BF9E7303BF7E73F
:1045A0001A3BF5E70833F3E7503BF1E7A3F5E35394
:1045B000EEE70434002ECBD101EB4702C7E700BF82
:1045C0000C9400080096000808B5074B074A1968C4
:1045D00001F03D01996053680BB190689847BDE8C0
:1045E000084003F06BB800BF00000240A436002072
:1045F00008B5084B1968890901F03D018A019A60E4
:10460000054AD3680BB110699847BDE8084003F02C
:1046100055B800BF00000240A436002008B5084B82
:104620001968090C01F03D010A049A60054A5369B2
:104630000BB190699847BDE8084003F03FB800BF50
:1046400000000240A436002008B5084B1968890D07
:1046500001F03D018A059A60054AD3690BB1106AE1
:104660009847BDE8084003F029B800BF00000240A9
:10467000A436002008B5074B074A596801F03D01F0
:10468000D960536A0BB1906A9847BDE8084003F0BF
:1046900015B800BF00000240A436002008B5084B42
:1046A0005968890901F03D018A01DA60054AD36A37
:1046B0000BB1106B9847BDE8084002F0FFBF00BF88
:1046C00000000240A436002008B5084B5968090CC8
:1046D00001F03D010A04DA60054A536B0BB1906B9F
:1046E0009847BDE8084002F0E9BF00BF0000024063
:1046F000A436002008B5084B5968890D01F03D012A
:104700008A05DA60054AD36B0BB1106C9847BDE897
:10471000084002F0D3BF00BF00000240A4360020D2
:1047200008B5074B074A196801F03D019960536CC1
:104730000BB1906C9847BDE8084002F0BFBF00BFC6
:1047400000040240A436002008B5084B1968890906
:1047500001F03D018A019A60054AD36C0BB1106DDE
:104760009847BDE8084002F0A9BF00BF000402401E
:10477000A436002008B5084B1968090C01F03D016A
:104780000A049A60054A536D0BB1906D9847BDE8D5
:10479000084002F093BF00BF00040240A43600208E
:1047A00008B5084B1968890D01F03D018A059A602A
:1047B000054AD36D0BB1106E9847BDE8084002F072
:1047C0007DBF00BF00040240A436002008B5074B9F
:1047D000074A596801F03D01D960536E0BB1906EE4
:1047E0009847BDE8084002F069BF00BF00040240DE
:1047F000A436002008B5084B5968890901F03D012D
:104800008A01DA60054AD36E0BB1106F9847BDE894
:10481000084002F053BF00BF00040240A43600204D
:1048200008B5084B5968090C01F03D010A04DA602B
:10483000054A536F0BB1906F9847BDE8084002F0EE
:104840003DBF00BF00040240A436002008B5084B5D
:104850005968890D01F03D018A05DA60054AD36F78
:1048600013B1D2F880009847BDE8084002F026BF97
:1048700000040240A436002000230C4910B51A465B
:104880000B4C0B6054F82300026001EB430004332F
:104890004260402BF6D1074A4FF0FF339360D3605C
:1048A000C2F80834C2F80C3410BD00BFA436002092
:1048B000BC970008000002400F28F8B510D9102856
:1048C00010D0112811D0122808D10F240720DFF8AA
:1048D000B4E00126DEF80050A04208D9002649E0E5
:1048E0000446F4E70F240020F1E70724FBE706FA6B
:1048F00000F73D4240D1214C4FEA001C3D4304EB00
:1049000000160EEBC000CEF80050C0E90123FBB248
:104910004BB11B48836B43F001038363036E43F089
:1049200001030366036E17F47F4F09D01448836BAD
:1049300043F002038363036E43F002030366036ED6
:1049400054F80C00036823F01F030360056815F09A
:104950000105FBD104EB0C033D2493F80CC05F6808
:1049600004FA0CF43C6021240560446112B1987B88
:1049700000F0BAFC3046F8BD0130ADE7BC97000846
:1049800000450258A436002010B5302484F3118865
:10499000FFF792FF002383F3118810BD10B5044682
:1049A000807B00F0B7FC01231049627B03FA02F21E
:1049B0000B6823EA0203DAB20B604AB90C4A916B26
:1049C00021F001019163116E21F001011166126E57
:1049D00013F47F4F09D1064B9A6B22F002029A63BF
:1049E0001A6E22F002021A661B6E10BDA436002059
:1049F0000045025808B5302383F31188FFF7CEFF36
:104A0000002383F3118808BD084BC26A994228BF6E
:104A10001946836C50688B4210B506D95A1E4C005B
:104A200002EB4103B3FBF4F3184410BD20BCBE00FD
:104A300001F001038A0748BF43F002034A0748BF59
:104A400043F008030A0748BF43F00403CA0648BFFF
:104A500043F010038A06426B48BF43F02003134320
:104A60004363704710B5074C204600F0BFFF064B6C
:104A70000022C4E91023054BA364054BE363054BF7
:104A8000E36410BD283700200070005200B4C40455
:104A90007C3700207C390020C36A0BB90E4BC362FF
:104AA0000379012B0CD10D4B984209D10C4B5A6B59
:104AB00042F480325A63DA6D42F48032DA65DB6D9B
:104AC000436C00221A65DA621A605A605A624FF02B
:104AD000FF329A63704700BFBC9800082837002057
:104AE000004502580379012B16D0436C00221A6549
:104AF000DA621A605A605A624FF0FF329A63074BCB
:104B0000984209D1064B5A6B22F480325A63DA6D0F
:104B100022F48032DA65DB6D704700BF2837002051
:104B20000045025810B5446C0649FFF76DFF606000
:104B3000236842F2107043F003032360BDE8104085
:104B400001F05ABD801A06000129F8B5466C0B4FDA
:104B500009D175680A493D40FFF756FF054345F402
:104B600080557560F8BD746806493C40FFF74CFFFE
:104B7000044344F480547460F4E700BF00ECFFFF8A
:104B800080F0FA0240787D01436C00225A601A607E
:104B900070470000426C0129536823F4404304D05D
:104BA000022905D001B95360704743F48043FAE706
:104BB00043F40043F7E70000436C41F480519A60EE
:104BC000D9605A6B1206FCD580229A6370470000A8
:104BD00010B541F48851446CA260E160616B11F042
:104BE0004502FBD0A26311F0040203D0FFF720FFBF
:104BF000012010BD616910461960FAE710B541F453
:104C00008851446CA260E160616B11F04502FBD0F9
:104C1000A26311F0050203D0FFF70AFF012010BDC7
:104C2000616910461960FAE773B5134604460E46EB
:104C3000302282F31188426CD26B32B14FF0FF31D7
:104C40004030019301F0E4FC019B606C002202659E
:104C5000C263C262456B15F4807504D185F3118877
:104C6000012002B070BD4FF0FF31816382F31188E3
:104C7000012E06D90C21204602B0BDE87040FFF796
:104C8000BDBF1046EDE7000073B5446C0E4600252D
:104C90000192616BA1632565E562FFF7C9FE012EF4
:104CA00007D9019B2A460C2102B0BDE87040FFF7EE
:104CB000A5BF02B070BD000010B541F49851446C1E
:104CC000A260E160616B11F04502FBD0A26311F0BC
:104CD0003F0203D0FFF7ACFE012010BD216A104651
:104CE0001960E1695960A16999606169D960F4E767
:104CF0002DE9F74304460191006D01A91746984636
:104D000002F010FC064600284AD0626C2046DDF80E
:104D100004905568C5F3090501356B00A56CB5FB1A
:104D2000F3F54FF47A73B5FBF3F55D43556200F08C
:104D300023FE50BB636C4FF0FF3201254146C3F8A0
:104D4000589020461D659A634FF49572DA6342F2DB
:104D500007029F62DA62E36C0A9AFFF74FFFA0B97D
:104D6000E26C104B11680B407BB929462046FFF7D7
:104D70005BFF054648B92E463A460199206D02F080
:104D800003FC304603B0BDE8F0833A460199206D3C
:104D900002F0FAFBE26C01212046FFF775FFF0E715
:104DA0000126EEE708E0FFFD2DE9F7431F46436CBF
:104DB00001924FF47A725D6804468846C5F309058E
:104DC00001356E00856CB5FBF6F5B5FBF2F5554384
:104DD0005D6200F0D1FD20B10125284603B0BDE899
:104DE000F0837E0201A9206D324602F09BFB05464E
:104DF0000028F1D0636C019AD4F84C909A65012296
:104E00001A654FF0FF329A634FF49572DA639E622F
:104E1000236BDB064B4658BF4FEA4828012F42461A
:104E20001BD912212046FFF7E9FEC0B9D9F80020AE
:104E3000104B13409BB9636C42F2930239462046F3
:104E4000DA62E26CFFF7F0FE804640B93246019923
:104E5000206D454602F098FBBFE71121E2E732469C
:104E60000199206D02F090FBE26C39462046FFF775
:104E70000BFFB2E708E0FFFD2DE9F3411F46436C4D
:104E800001924FF47A725D6804468846C5F30905BD
:104E900001356E00856CB5FBF6F5B5FBF2F55543B3
:104EA0005D6200F069FD20B10125284602B0BDE831
:104EB000F0817E0201A9206D324602F073FB0546A7
:104EC0000028F1D0636C019A9A6501221A654FF0AF
:104ED000FF329A634FF48D72DA639E62236BE66C45
:104EE000DB06334658BF4FEA4828012F424619D9FE
:104EF00019212046FFF782FEB0B932680F4B1340EC
:104F000093B9636C42F2910239462046DA62E26C50
:104F1000FFF78AFE064638B901993546206D02F042
:104F200077FBC2E71821E4E70199206D02F070FBDE
:104F3000E26C39462046FFF7A7FEB6E708E0FFFD22
:104F400012F0030F2DE9F04107460C4615461E46A8
:104F500017D00E44B44202D10020BDE8F0810123F5
:104F6000FA6B21463846FFF71FFF0028F5D1284687
:104F70004FF40072F96B05F500750134FCF7AAFED9
:104F8000E8E7BDE8F041FFF70FBF000012F0030FA4
:104F90002DE9F04107460C4615461E4617D00E4433
:104FA000B44202D10020BDE8F08129464FF40072DE
:104FB000F86B05F50075FCF78DFE0123FA6B2146B1
:104FC0003846FFF759FF0028EDD10134E8E7BDE886
:104FD000F041FFF751BF000000207047302310B5AB
:104FE00083F311880024436C40302146DC6301F0D8
:104FF0001DFB84F3118810BD0268436811430160F2
:1050000003B1184770470000024A136843F0C00319
:105010001360704700440040024A136843F0C00325
:105020001360704700480040024A136843F0C00311
:105030001360704700780040044B9A6C02439A64F6
:105040001A6F104318671B6F704700BF0045025866
:1050500037B5274C274D204600F028FD04F11400F9
:10506000009400234FF40072234900F0C3F94FF479
:105070000072224904F138000094214B00F03CFA00
:10508000204BC4E91735204C204600F00FFD04F1F9
:105090001400009400234FF400721C4900F0AAF998
:1050A0004FF400721A4904F138000094194B00F0D3
:1050B00023FA194BC4E91735184C204600F0F6FCCA
:1050C00004F1140000234FF400721549009400F01D
:1050D00091F9144B4FF40072134904F13800009415
:1050E00000F00AFA114BC4E9173503B030BD00BF18
:1050F0008039002000E1F505C43A0020C4400020BA
:105100000950000800440040EC390020C43C002055
:10511000C44200201950000800480040583A0020BE
:10512000C43E002029500008C444002000780040FC
:1051300038B5264D0446037C002918BF0D46012BC7
:1051400006D1234B984230D14FF40030FFF774FF63
:105150002A68236EE16D03EB5203A566B3FBF2F3FD
:105160006A68100442BF23F0070003F0070343EA14
:105170004003CB60AB6843F040034B60EB6843F007
:1051800001038B6042F4967343F001030B604FF010
:10519000FF330B62510505D512F0102211D0B2F188
:1051A000805F10D084F8643038BD0A4B984205D037
:1051B000094B9842CCD14FF08040C7E74FF4802094
:1051C000C4E77F23EEE73F23ECE700BFC498000865
:1051D00080390020EC390020583A00202DE9F047B2
:1051E000C66D05463768F469210734621AD014F099
:1051F000080118BF4FF48071E20748BF41F0200159
:10520000A3074FF0300348BF41F04001600748BF9B
:1052100041F0800183F31188281DFFF7EDFE002384
:1052200083F31188E2050AD5302383F311884FF404
:105230008061281DFFF7E0FE002383F311884FF003
:1052400030094FF0000A14F0200838D13B0616D57B
:105250004FF0300905F1380A200610D589F311887E
:10526000504600F07DF9002836DA0821281DFFF7A6
:10527000C3FE27F080033360002383F3118879068F
:1052800014D5620612D5302383F31188D5E9132390
:105290009A4208D12B6C33B127F040071021281D0A
:1052A000FFF7AAFE3760002383F31188E30618D5C1
:1052B000AA6E1369ABB15069BDE8F047184789F38E
:1052C0001188736A284695F86410194000F008FCAC
:1052D0008AF31188F469B6E7B06288F31188F4693B
:1052E000BAE7BDE8F0870000090100F16043012240
:1052F00003F56143C9B283F8001300F01F039A401D
:1053000043099B0003F1604303F56143C3F8802127
:105310001A60704700F01F0301229A40430900F110
:1053200060409B0000F5614003F1604303F5614379
:10533000C3F88020C3F88021002380F80033704731
:10534000F8B51546826804460B46AA4200D2856825
:10535000A1692669761AB5420BD218462A46FCF78F
:10536000B9FCA3692B44A3612846A3685B1BA36017
:10537000F8BD0CD9AF1B18463246FCF7ABFC3A46D9
:10538000E1683044FCF7A6FCE3683B44EBE71846D1
:105390002A46FCF79FFCE368E5E700008368934238
:1053A000F7B50446154600D28568D4E90460361A7C
:1053B000B5420BD22A46FCF78DFC63692B4463612E
:1053C0002846A3685B1BA36003B0F0BD0DD932462D
:1053D000AF1B0191FCF77EFC01993A46E06831442D
:1053E000FCF778FCE3683B44E9E72A46FCF772FCEB
:1053F000E368E4E710B50A440024C361029B8460BB
:10540000C16002610362C0E90000C0E9051110BD7E
:1054100008B5D0E90532934201D1826882B9826829
:10542000013282605A1C426119700021D0E90432B5
:105430009A4224BFC368436101F012F9002008BDFD
:105440004FF0FF30FBE7000070B5302304460E46F6
:1054500083F31188A568A5B1A368A269013BA36085
:10546000531CA36115782269934224BFE368A361AA
:10547000E3690BB120469847002383F3118828463F
:1054800007E03146204601F0DBF80028E2DA85F338
:10549000118870BD2DE9F74F04460E461746984611
:1054A000D0F81C904FF0300A8AF311884FF0000BAF
:1054B000154665B12A4631462046FFF741FF0346AF
:1054C00060B94146204601F0BBF80028F1D0002326
:1054D00083F31188781B03B0BDE8F08FB9F1000F9A
:1054E00003D001902046C847019B8BF31188ED1A29
:1054F0001E448AF31188DCE7C160C361009B8260AF
:105500000362C0E905111144C0E900000161704760
:10551000F8B504460D461646302383F31188A76874
:10552000A7B1A368013BA36063695A1C62611D7047
:10553000D4E904329A4224BFE3686361E3690BB1A2
:1055400020469847002080F3118807E03146204626
:1055500001F076F80028E2DA87F31188F8BD000040
:10556000D0E9052310B59A4201D182687AB98268E0
:105570000021013282605A1C82611C7803699A42C0
:1055800024BFC368836101F06BF8204610BD4FF063
:10559000FF30FBE72DE9F74F04460E4617469846C5
:1055A000D0F81C904FF0300A8AF311884FF0000BAE
:1055B000154665B12A4631462046FFF7EFFE034601
:1055C00060B94146204601F03BF80028F1D00023A5
:1055D00083F31188781B03B0BDE8F08FB9F1000F99
:1055E00003D001902046C847019B8BF31188ED1A28
:1055F0001E448AF31188DCE70379052B05BF836A13
:10560000002001204B6004BF4FF400730B60704713
:1056100070B55D1E866A04460D44B54205D9436BDC
:1056200043F080034363012070BD06250571FFF739
:1056300087FC05232371F7E770B55D1E866A044673
:105640000D44B54205D9436B43F080034363012009
:1056500070BD07250571FFF799FC05232371F7E756
:1056600038B505790446052D05D108230371FFF7E8
:10567000B3FC257138BD0120FCE700000323F0B521
:10568000037185B00446FFF74DFA0022204611460B
:10569000FFF792FA4FF4D57203AB08212046FFF7CB
:1056A000ADFA0246B8B901232363039BC3F3032376
:1056B000012B09D103AB37212046FFF79FFA18B918
:1056C000A44B039A1340ABB120460125FFF75CFAC7
:1056D0000223237137E103AB002237212046FFF775
:1056E0008DFA28B99B4A039B1A40002A00F0A78034
:1056F00002232363236B03F00F03022B40F0A980E6
:105700006425954E42F2107000F076FF03AB3246EE
:1057100001212046FFF75CFA0028D5D1039B002B1E
:1057200080F293805A0003D5236B43F01003236368
:10573000002204F1080302212046FFF7BDFA0246C9
:105740000028C1D104F1380303212046FFF756FA9F
:105750000028B9D104F11805A26B092120462B4677
:10576000FFF7AAFA0028AFD102ABA26B07212046AF
:10577000FFF744FA06460028A6D1236B03F00F0377
:10578000022B40F08F807E227F21284603F0F2F921
:10579000012840F28780E76B42F2107000F02CFF86
:1057A00008234FF40072394620460096FFF7A0FA0E
:1057B000002889D1384603F02BFA236BA06203F04E
:1057C0000F03022B72D103AB644A06212046FFF778
:1057D00015FA002871D15F49039B1940B1FA81F194
:1057E00049092046FFF7B0F902AB4FF400721021CF
:1057F0002046FFF703FA054600287FF465AF554EB3
:10580000029B33427FF460AF236B13F00E0F03F063
:105810000F0273D0022A7FF457AFE36A1978012987
:1058200000F09480022900F09380002900F0898024
:105830004B4F2046FFF7AEF903AB3A4676E01146F0
:1058400020462263FFF7B8F954E7013D7FF45AAFD1
:105850003AE7444D6426444A3E4F012B18BF154693
:1058600003AB002237212046FFF7C8F900287FF458
:105870002BAF039B3B427FF427AF03AB2A46292182
:105880002046FFF7A5F900287FF41EAF039B002BED
:10589000FFF648AF013E3FF417AF42F2107000F040
:1058A000ABFEDDE7284603F087F986E77E227F21FD
:1058B0002846E66B03F05EF908B9002191E7002362
:1058C00040223146204600930623FFF711FA0028B4
:1058D000F3D1B3895BBA9B07EFD5244B4022314605
:1058E000204600930623FFF703FA0028E5D1317C18
:1058F00001F00F010F3918BF012172E7E36A19782F
:10590000F9B101297FF4E0AE2046FFF743F903AB7C
:10591000A26B37212046FFF771F900287FF4D4AE3F
:10592000039B33427FF4D0AE03AB02220621204614
:10593000FFF764F900287FF4C7AE039B33427FF47E
:10594000C3AE05232371284605B0F0BD084F70E7AC
:10595000084F6EE708E0FFFD0080FFC00001B903BB
:105960000000B7030080FF5000001080F1FFFF80AF
:105970000001B7030002B70337B504460C4D01AB75
:10598000A26B0D212046FFF739F978B9019B2B4214
:105990000BD1C3F34323042B08D0053B022B04D8BF
:1059A0004FF47A7000F028FEE9E7012003B030BD23
:1059B00008E0FFFD70B53023054683F311880379B5
:1059C0000024022B03D184F31188204670BD0423E8
:1059D000037184F311880226FFF7CEFF04462846A0
:1059E000FFF7D2F82E71F0E7FFF73CB8044B0360E5
:1059F0000123037100234363C0E90A33704700BFEA
:105A0000DC98000810B53023044683F31188C16286
:105A1000FFF742F802230020237180F3118810BDA4
:105A200010B53023044683F31188FFF75BF8002399
:105A30000122E362227183F3118810BD026843687A
:105A40001143016003B11847704700001430FFF79D
:105A500021BD00004FF0FF331430FFF71BBD0000E5
:105A60003830FFF797BD00004FF0FF333830FFF7B5
:105A700091BD00001430FFF7E7BC00004FF0FF318C
:105A80001430FFF7E1BC00003830FFF741BD0000E3
:105A90004FF0FF323830FFF73BBD0000012914BF43
:105AA0006FF0130000207047FFF7D2BA044B036079
:105AB00000234360C0E9023301230374704700BF31
:105AC0000099000810B53023044683F31188FFF7CE
:105AD0002FFB02230020237480F3118810BD0000E7
